:100000000C9434000C9449000C9449000C94490061
:100010000C9449000C9449000C9449000C9449003C
:100020000C9449000C9449000C9449000C9449002C
:100030000C9449000C9449000C9449000C9449001C
:100040000C9449000C9449000C9449000C9449000C
:100050000C9449000C9449000C9449000C944900FC
:100060000C9449000C94490011241FBECFEFD8E036
:10007000DEBFCDBF11E0A0E0B1E0E4E6F1E002C0F8
:1000800005900D92A031B107D9F70E9462000C943F
:10009000B0000C94000028988BB9299A85E08A95C5
:1000A000F1F7000029980895FC019191992349F0F6
:1000B000289A9BB9299A85E08A95F1F7000029983A
:1000C000F4CF08958FEF8AB9219A209A88E30E948D
:1000D0004B008CE00E944B0081E00E944B0080E0CE
:1000E00091E00E94540080EC0E944B0088E091E077
:1000F0000E9454002FEF81EE94E021508040904008
:10010000E1F700C000008FEC97E00197F1F700C025
:100110000000C9E0D0E088E10E944B009FEF21EE93
:1001200084E0915020408040E1F700C0000021971A
:1001300091F78FEC97E00197F1F700C00000C9E05C
:10014000D0E08CE10E944B009FEF21EE84E09150C3
:1001500020408040E1F700C00000219791F7D3CF05
:04016000F894FFCF41
:1001640044656972647265004465656E6579000072
:00000001FF
